{
    "contractName": "Closet",
    "abi": [
        {
            "anonymous": false,
            "inputs": [
                {
                    "indexed": true,
                    "internalType": "address",
                    "name": "_owner",
                    "type": "address"
                },
                {
                    "indexed": true,
                    "internalType": "bytes32",
                    "name": "_hash",
                    "type": "bytes32"
                }
            ],
            "name": "End",
            "type": "event"
        },
        {
            "anonymous": false,
            "inputs": [
                {
                    "indexed": false,
                    "internalType": "string",
                    "name": "_secret",
                    "type": "string"
                },
                {
                    "indexed": true,
                    "internalType": "address",
                    "name": "_thief",
                    "type": "address"
                },
                {
                    "indexed": true,
                    "internalType": "address",
                    "name": "_owner",
                    "type": "address"
                },
                {
                    "indexed": true,
                    "internalType": "bytes32",
                    "name": "_hash",
                    "type": "bytes32"
                }
            ],
            "name": "Exposure",
            "type": "event"
        },
        {
            "anonymous": false,
            "inputs": [
                {
                    "indexed": true,
                    "internalType": "address",
                    "name": "_owner",
                    "type": "address"
                },
                {
                    "indexed": false,
                    "internalType": "uint256",
                    "name": "_amount",
                    "type": "uint256"
                }
            ],
            "name": "Redeemable",
            "type": "event"
        },
        {
            "anonymous": false,
            "inputs": [
                {
                    "indexed": true,
                    "internalType": "address",
                    "name": "_owner",
                    "type": "address"
                },
                {
                    "indexed": false,
                    "internalType": "bytes32",
                    "name": "_hash",
                    "type": "bytes32"
                }
            ],
            "name": "Start",
            "type": "event"
        },
        {
            "anonymous": false,
            "inputs": [
                {
                    "indexed": true,
                    "internalType": "address",
                    "name": "_address",
                    "type": "address"
                },
                {
                    "indexed": false,
                    "internalType": "uint256",
                    "name": "_amount",
                    "type": "uint256"
                }
            ],
            "name": "Withdrawal",
            "type": "event"
        },
        {
            "inputs": [
                {
                    "internalType": "address",
                    "name": "",
                    "type": "address"
                }
            ],
            "name": "balances",
            "outputs": [
                {
                    "internalType": "uint256",
                    "name": "",
                    "type": "uint256"
                }
            ],
            "stateMutability": "view",
            "type": "function"
        },
        {
            "inputs": [
                {
                    "internalType": "bytes32",
                    "name": "",
                    "type": "bytes32"
                }
            ],
            "name": "chests",
            "outputs": [
                {
                    "internalType": "bool",
                    "name": "empty",
                    "type": "bool"
                },
                {
                    "internalType": "uint256",
                    "name": "amount",
                    "type": "uint256"
                },
                {
                    "internalType": "uint256",
                    "name": "reward",
                    "type": "uint256"
                },
                {
                    "internalType": "uint256",
                    "name": "maturity",
                    "type": "uint256"
                },
                {
                    "internalType": "address",
                    "name": "owner",
                    "type": "address"
                },
                {
                    "internalType": "address",
                    "name": "thief",
                    "type": "address"
                }
            ],
            "stateMutability": "view",
            "type": "function"
        },
        {
            "inputs": [
                {
                    "internalType": "string",
                    "name": "_secret",
                    "type": "string"
                }
            ],
            "name": "loot",
            "outputs": [],
            "stateMutability": "nonpayable",
            "type": "function"
        },
        {
            "inputs": [
                {
                    "internalType": "string",
                    "name": "_secret",
                    "type": "string"
                },
                {
                    "internalType": "bytes32",
                    "name": "_hash",
                    "type": "bytes32"
                }
            ],
            "name": "redeem",
            "outputs": [],
            "stateMutability": "nonpayable",
            "type": "function"
        },
        {
            "inputs": [
                {
                    "internalType": "bytes32",
                    "name": "_hash",
                    "type": "bytes32"
                },
                {
                    "internalType": "uint256",
                    "name": "amount",
                    "type": "uint256"
                },
                {
                    "internalType": "uint256",
                    "name": "maturity",
                    "type": "uint256"
                }
            ],
            "name": "stake",
            "outputs": [],
            "stateMutability": "payable",
            "type": "function"
        },
        {
            "inputs": [
                {
                    "internalType": "uint256",
                    "name": "amount",
                    "type": "uint256"
                }
            ],
            "name": "withdraw",
            "outputs": [],
            "stateMutability": "payable",
            "type": "function"
        }
    ],
    "bytecode": "608060405234801561001057600080fd5b50610b84806100206000396000f3fe6080604052600436106100555760003560e01c80630d97f3951461005a57806327e235e31461007c5780632daedd52146100bc5780632e1a7d4d146100cf578063af31a1fc146100e2578063b1fe6f8d1461017e575b600080fd5b34801561006657600080fd5b5061007a610075366004610971565b61019e565b005b34801561008857600080fd5b506100a96100973660046109b6565b60016020526000908152604090205481565b6040519081526020015b60405180910390f35b61007a6100ca3660046109e6565b610411565b61007a6100dd366004610a12565b61064b565b3480156100ee57600080fd5b506101436100fd366004610a12565b60006020819052908152604090208054600182015460028301546003840154600485015460059095015460ff909416949293919290916001600160a01b03918216911686565b60408051961515875260208701959095529385019290925260608401526001600160a01b0390811660808401521660a082015260c0016100b3565b34801561018a57600080fd5b5061007a610199366004610a2b565b6106de565b8151601081108015906101b2575060208111155b6101f75760405162461bcd60e51b8152602060048201526011602482015270496e76616c696420627974652073697a6560781b60448201526064015b60405180910390fd5b600082815260208190526040902060038101544281111561024f5760405162461bcd60e51b8152602060048201526012602482015271556e65787069726564206d6174757269747960701b60448201526064016101ee565b60048201546001600160a01b031633811461029f5760405162461bcd60e51b815260206004820152601060248201526f233930bab23ab632b73a1037bbb732b960811b60448201526064016101ee565b6000866040516020016102b29190610a98565b6040516020818303038152906040528051906020012090508581146103125760405162461bcd60e51b8152602060048201526016602482015275092dcecc2d8d2c840e6cac6e4cae840dee440d0c2e6d60531b60448201526064016101ee565b835460ff1680156103535760405162461bcd60e51b815260206004820152600b60248201526a115b5c1d1e4818da195cdd60aa1b60448201526064016101ee565b600180860154865460ff1916821787556001600160a01b03851660009081526020929092526040822080549192839261038d908490610aca565b90915550506040518181526001600160a01b038516907faf7eda0a8c64b1f0aa127209861e57005eae685135365e84dd00e64b7c3475039060200160405180910390a260405188906001600160a01b038616907f60e0a961f22eb3ebe44ae9315117dbcfd8c2d6fd2602927d2e5981112b2eafa490600090a3505050505050505050565b4281116104535760405162461bcd60e51b815260206004820152601060248201526f45787069726564206d6174757269747960801b60448201526064016101ee565b600061045f8334610ae2565b9050600061046e600285610af9565b9050600081116104b55760405162461bcd60e51b8152602060048201526012602482015271496e73756666696369656e742066756e647360701b60448201526064016101ee565b60008581526020818152604091829020825160c081018452815460ff161515815260018201549281019290925260028101549282018390526003810154606083015260048101546001600160a01b0390811660808401526005909101541660a082015290156105565760405162461bcd60e51b815260206004820152600d60248201526c08af0d2e6e8d2dcce40d0c2e6d609b1b60448201526064016101ee565b3360009081526001602052604081208054859290610575908490610aca565b90915550506040805160c08101825260008082526020808301898152838501878152606085018a8152336080870181815260a088018781528f8852878752968990209751885460ff1916901515178855935160018801559151600287015551600386015590516004850180546001600160a01b03199081166001600160a01b0393841617909155935160059095018054909416941693909317909155915188815290917f7a1cb491da9915d087844d867ad00ac476b12041d231adb7a04be595db91e44b910160405180910390a2505050505050565b33600090815260016020526040812054906106668383610ae2565b9050336000818152600160205260408082208490555185156108fc0291869190818181858888f193505050501580156106a3573d6000803e3d6000fd5b5060405183815233907f7fcf532c15f0a6db0bd6d0e038bea71d30d808c7d98cb3bf7268a95bf5081b659060200160405180910390a2505050565b6000816040516020016106f19190610a98565b60408051601f19818403018152918152815160209283012060008181529283905290822060028101549193509181900361076d5760405162461bcd60e51b815260206004820152601960248201527f496e76616c696420736563726574206f7220616464726573730000000000000060448201526064016101ee565b60038201544281116107b45760405162461bcd60e51b815260206004820152601060248201526f45787069726564206d6174757269747960801b60448201526064016101ee565b825460ff1680156107f95760405162461bcd60e51b815260206004820152600f60248201526e2a3932b0b9bab9329039ba37b632b760891b60448201526064016101ee565b835460ff1916600190811785556005850180546001600160a01b03191633908117909155600090815260209190915260408120805485929061083c908490610aca565b9091555050600484015460405186916001600160a01b03169033907f72068075b544663f72c0c0ca9ba9ddf4689e6a27cdc2ec5df322f7d422d09eb390610884908b90610b1b565b60405180910390a4600484015460405186916001600160a01b0316907f60e0a961f22eb3ebe44ae9315117dbcfd8c2d6fd2602927d2e5981112b2eafa490600090a3505050505050565b634e487b7160e01b600052604160045260246000fd5b600082601f8301126108f557600080fd5b813567ffffffffffffffff80821115610910576109106108ce565b604051601f8301601f19908116603f01168101908282118183101715610938576109386108ce565b8160405283815286602085880101111561095157600080fd5b836020870160208301376000602085830101528094505050505092915050565b6000806040838503121561098457600080fd5b823567ffffffffffffffff81111561099b57600080fd5b6109a7858286016108e4565b95602094909401359450505050565b6000602082840312156109c857600080fd5b81356001600160a01b03811681146109df57600080fd5b9392505050565b6000806000606084860312156109fb57600080fd5b505081359360208301359350604090920135919050565b600060208284031215610a2457600080fd5b5035919050565b600060208284031215610a3d57600080fd5b813567ffffffffffffffff811115610a5457600080fd5b610a60848285016108e4565b949350505050565b60005b83811015610a83578181015183820152602001610a6b565b83811115610a92576000848401525b50505050565b60008251610aaa818460208701610a68565b9190910192915050565b634e487b7160e01b600052601160045260246000fd5b60008219821115610add57610add610ab4565b500190565b600082821015610af457610af4610ab4565b500390565b600082610b1657634e487b7160e01b600052601260045260246000fd5b500490565b6020815260008251806020840152610b3a816040850160208701610a68565b601f01601f1916919091016040019291505056fea2646970667358221220dde8e9454b9a3459fd055cc23dcab7a7347bd469e6acf3517c356701b2ce0b7964736f6c634300080f0033",
    "sourcePath": "/Users/elileinkram/Development/Closet/contracts/Closet.sol",
    "compiler": {
        "name": "solc",
        "version": "0.8.15+commit.e14f2714"
    },
    "functionHashes": {
        "balances(address)": "27e235e3",
        "chests(bytes32)": "af31a1fc",
        "loot(string)": "b1fe6f8d",
        "redeem(string,bytes32)": "0d97f395",
        "stake(bytes32,uint256,uint256)": "2daedd52",
        "withdraw(uint256)": "2e1a7d4d"
    },
    "gasEstimates": {
        "creation": {
            "codeDepositCost": "589600",
            "executionCost": "625",
            "totalCost": "590225"
        },
        "external": {
            "balances(address)": "2473",
            "chests(bytes32)": "13250",
            "loot(string)": "infinite",
            "redeem(string,bytes32)": "infinite",
            "stake(bytes32,uint256,uint256)": "178498",
            "withdraw(uint256)": "infinite"
        }
    }
}